{
  "contractName": "IterableMapping",
  "abi": [
    {
      "constant": false,
      "inputs": [
        {
          "name": "self",
          "type": "IterableMapping.itmap storage"
        },
        {
          "name": "key",
          "type": "address"
        }
      ],
      "name": "remove",
      "outputs": [
        {
          "name": "success",
          "type": "bool"
        }
      ],
      "payable": false,
      "stateMutability": "nonpayable",
      "type": "function"
    },
    {
      "constant": false,
      "inputs": [
        {
          "name": "self",
          "type": "IterableMapping.itmap storage"
        },
        {
          "name": "key",
          "type": "address"
        },
        {
          "name": "value",
          "type": "uint256"
        },
        {
          "name": "betSum",
          "type": "uint256"
        }
      ],
      "name": "insert",
      "outputs": [
        {
          "name": "replaced",
          "type": "bool"
        }
      ],
      "payable": false,
      "stateMutability": "nonpayable",
      "type": "function"
    },
    {
      "constant": true,
      "inputs": [
        {
          "name": "self",
          "type": "IterableMapping.itmap storage"
        },
        {
          "name": "key",
          "type": "address"
        }
      ],
      "name": "contains",
      "outputs": [
        {
          "name": "",
          "type": "bool"
        }
      ],
      "payable": false,
      "stateMutability": "view",
      "type": "function"
    },
    {
      "constant": true,
      "inputs": [
        {
          "name": "self",
          "type": "IterableMapping.itmap storage"
        },
        {
          "name": "keyIndex",
          "type": "uint256"
        }
      ],
      "name": "iterate_get",
      "outputs": [
        {
          "name": "key",
          "type": "address"
        },
        {
          "name": "value",
          "type": "uint256"
        },
        {
          "name": "betSum",
          "type": "uint256"
        }
      ],
      "payable": false,
      "stateMutability": "view",
      "type": "function"
    },
    {
      "constant": true,
      "inputs": [
        {
          "name": "self",
          "type": "IterableMapping.itmap storage"
        },
        {
          "name": "keyIndex",
          "type": "uint256"
        }
      ],
      "name": "iterate_next",
      "outputs": [
        {
          "name": "r_keyIndex",
          "type": "uint256"
        }
      ],
      "payable": false,
      "stateMutability": "view",
      "type": "function"
    },
    {
      "constant": true,
      "inputs": [
        {
          "name": "self",
          "type": "IterableMapping.itmap storage"
        }
      ],
      "name": "iterate_start",
      "outputs": [
        {
          "name": "keyIndex",
          "type": "uint256"
        }
      ],
      "payable": false,
      "stateMutability": "view",
      "type": "function"
    },
    {
      "constant": true,
      "inputs": [
        {
          "name": "self",
          "type": "IterableMapping.itmap storage"
        },
        {
          "name": "keyIndex",
          "type": "uint256"
        }
      ],
      "name": "iterate_valid",
      "outputs": [
        {
          "name": "",
          "type": "bool"
        }
      ],
      "payable": false,
      "stateMutability": "view",
      "type": "function"
    }
  ],
  "bytecode": "0x6060604052341561000f57600080fd5b6107fd8061001e6000396000f300606060405260043610610083576000357c0100000000000000000000000000000000000000000000000000000000900463ffffffff16806320aafe181461008857806358033417146100d75780636042c6631461013857806375a3e8e81461018757806388d04437146101f6578063a21ab7161461022b578063c8fccc6914610257575b600080fd5b6100bd600480803590602001909190803573ffffffffffffffffffffffffffffffffffffffff16906020019091905050610290565b604051808215151515815260200191505060405180910390f35b61011e600480803590602001909190803573ffffffffffffffffffffffffffffffffffffffff169060200190919080359060200190919080359060200190919050506103a0565b604051808215151515815260200191505060405180910390f35b61016d600480803590602001909190803573ffffffffffffffffffffffffffffffffffffffff16906020019091905050610572565b604051808215151515815260200191505060405180910390f35b6101a660048080359060200190919080359060200190919050506105c3565b604051808473ffffffffffffffffffffffffffffffffffffffff1673ffffffffffffffffffffffffffffffffffffffff168152602001838152602001828152602001935050505060405180910390f35b610215600480803590602001909190803590602001909190505061069f565b6040518082815260200191505060405180910390f35b6102416004808035906020019091905050610704565b6040518082815260200191505060405180910390f35b6102766004808035906020019091908035906020019091905050610737565b604051808215151515815260200191505060405180910390f35b6000808360000160008473ffffffffffffffffffffffffffffffffffffffff1673ffffffffffffffffffffffffffffffffffffffff16815260200190815260200160002060000154905060008114156102ec5760009150610399565b8360000160008473ffffffffffffffffffffffffffffffffffffffff1673ffffffffffffffffffffffffffffffffffffffff1681526020019081526020016000206000808201600090556001820160009055600282016000905550506001846001016001830381548110151561035e57fe5b906000526020600020900160000160146101000a81548160ff0219169083151502179055508360020160008154809291906001900391905055505b5092915050565b6000808560000160008673ffffffffffffffffffffffffffffffffffffffff1673ffffffffffffffffffffffffffffffffffffffff168152602001908152602001600020600001549050838660000160008773ffffffffffffffffffffffffffffffffffffffff1673ffffffffffffffffffffffffffffffffffffffff16815260200190815260200160002060010181905550828660000160008773ffffffffffffffffffffffffffffffffffffffff1673ffffffffffffffffffffffffffffffffffffffff16815260200190815260200160002060020181905550600081111561048e5760019150610569565b8560010180548091906001016104a4919061074b565b9050600181018660000160008773ffffffffffffffffffffffffffffffffffffffff1673ffffffffffffffffffffffffffffffffffffffff1681526020019081526020016000206000018190555084866001018281548110151561050457fe5b906000526020600020900160000160006101000a81548173ffffffffffffffffffffffffffffffffffffffff021916908373ffffffffffffffffffffffffffffffffffffffff1602179055508560020160008154809291906001019190505550600091505b50949350505050565b6000808360000160008473ffffffffffffffffffffffffffffffffffffffff1673ffffffffffffffffffffffffffffffffffffffff1681526020019081526020016000206000015411905092915050565b600080600084600101848154811015156105d957fe5b906000526020600020900160000160009054906101000a900473ffffffffffffffffffffffffffffffffffffffff1692508460000160008473ffffffffffffffffffffffffffffffffffffffff1673ffffffffffffffffffffffffffffffffffffffff1681526020019081526020016000206001015491508460000160008473ffffffffffffffffffffffffffffffffffffffff1673ffffffffffffffffffffffffffffffffffffffff1681526020019081526020016000206002015490509250925092565b600081806001019250505b8260010180549050821080156106e9575082600101828154811015156106cc57fe5b906000526020600020900160000160149054906101000a900460ff165b156106fb5781806001019250506106aa565b81905092915050565b6000610730827fffffffffffffffffffffffffffffffffffffffffffffffffffffffffffffffff61069f565b9050919050565b600082600101805490508210905092915050565b815481835581811511610772578183600052602060002091820191016107719190610777565b5b505050565b6107ce91905b808211156107ca57600080820160006101000a81549073ffffffffffffffffffffffffffffffffffffffff02191690556000820160146101000a81549060ff02191690555060010161077d565b5090565b905600a165627a7a723058203da5344760441e8c862f832b084e7618fdea57e5c35aace38ec5deb908fd57d90029",
  "source": "  \r\npragma solidity ^0.4.2;\r\nlibrary IterableMapping\r\n{\r\n  struct itmap\r\n  {\r\n    mapping(address => IndexValue) data;\r\n    KeyFlag[] keys;\r\n    uint size;\r\n  }\r\n  // value est la valeur du pari, key est l'adresse du joueur, betSum est la somme de betsum(n-1) et de la valeur du pari.\r\n  struct IndexValue { uint keyIndex; uint value; uint betSum ;}\r\n  struct KeyFlag { address key; bool deleted; }\r\n  function insert(itmap storage self, address key, uint value, uint betSum) public returns (bool replaced)\r\n  {\r\n    uint keyIndex = self.data[key].keyIndex;\r\n    self.data[key].value = value;\r\n    self.data[key].betSum = betSum;\r\n    if (keyIndex > 0)\r\n      return true;\r\n    else\r\n    {\r\n      keyIndex = self.keys.length++;\r\n      self.data[key].keyIndex = keyIndex + 1;\r\n      self.keys[keyIndex].key = key;\r\n      self.size++;\r\n      return false;\r\n    }\r\n  }\r\n  function remove(itmap storage self, address key) public returns (bool success)\r\n  {\r\n    uint keyIndex = self.data[key].keyIndex;\r\n    if (keyIndex == 0)\r\n      return false;\r\n    delete self.data[key];\r\n    self.keys[keyIndex - 1].deleted = true;\r\n    self.size --;\r\n  }\r\n  function contains(itmap storage self, address key) public view returns (bool)\r\n  {\r\n    return self.data[key].keyIndex > 0;\r\n  }\r\n  function iterate_start(itmap storage self) public view returns (uint keyIndex)\r\n  {\r\n    return iterate_next(self, uint(-1));\r\n  }\r\n  function iterate_valid(itmap storage self, uint keyIndex) public view returns (bool)\r\n  {\r\n    return keyIndex < self.keys.length;\r\n  }\r\n  function iterate_next(itmap storage self, uint keyIndex) public view returns (uint r_keyIndex)\r\n  {\r\n    keyIndex++;\r\n    while (keyIndex < self.keys.length && self.keys[keyIndex].deleted)\r\n      keyIndex++;\r\n    return keyIndex;\r\n  }\r\n  function iterate_get(itmap storage self, uint keyIndex) public view returns (address key, uint value, uint betSum)\r\n  {\r\n    key = self.keys[keyIndex].key;\r\n    value = self.data[key].value;\r\n    betSum = self.data[key].betSum;\r\n  }\r\n}",
  "sourcePath": "/mnt/c/Users/valentin/workspace/camembertGame/contracts/IterableMapping.sol",
  "compiler": {
    "name": "solc",
    "version": "0.4.18+commit.9cf6e910.Emscripten.clang"
  },
  "schemaVersion": "1.0.1",
  "updatedAt": "2018-02-07T16:03:38.772Z"
}