{
  "contractName": "Roulette",
  "abi": [
    {
      "constant": false,
      "inputs": [],
      "name": "launch",
      "outputs": [],
      "payable": false,
      "stateMutability": "nonpayable",
      "type": "function"
    },
    {
      "constant": true,
      "inputs": [],
      "name": "ceoAddress",
      "outputs": [
        {
          "name": "",
          "type": "address"
        }
      ],
      "payable": false,
      "stateMutability": "view",
      "type": "function"
    },
    {
      "constant": false,
      "inputs": [],
      "name": "bet",
      "outputs": [],
      "payable": true,
      "stateMutability": "payable",
      "type": "function"
    },
    {
      "constant": true,
      "inputs": [],
      "name": "ownerToBet",
      "outputs": [
        {
          "name": "size",
          "type": "uint256"
        }
      ],
      "payable": false,
      "stateMutability": "view",
      "type": "function"
    },
    {
      "constant": true,
      "inputs": [],
      "name": "countBets",
      "outputs": [
        {
          "name": "",
          "type": "uint256"
        }
      ],
      "payable": false,
      "stateMutability": "view",
      "type": "function"
    },
    {
      "constant": false,
      "inputs": [],
      "name": "getUserBet",
      "outputs": [
        {
          "name": "value",
          "type": "uint256"
        },
        {
          "name": "sumBet",
          "type": "uint256"
        }
      ],
      "payable": false,
      "stateMutability": "nonpayable",
      "type": "function"
    },
    {
      "constant": true,
      "inputs": [],
      "name": "last_winner",
      "outputs": [
        {
          "name": "",
          "type": "address"
        }
      ],
      "payable": false,
      "stateMutability": "view",
      "type": "function"
    },
    {
      "constant": true,
      "inputs": [],
      "name": "maxValue",
      "outputs": [
        {
          "name": "",
          "type": "uint256"
        }
      ],
      "payable": false,
      "stateMutability": "view",
      "type": "function"
    },
    {
      "constant": false,
      "inputs": [
        {
          "name": "hashcode",
          "type": "bytes32"
        }
      ],
      "name": "testHack",
      "outputs": [
        {
          "name": "",
          "type": "uint256"
        }
      ],
      "payable": false,
      "stateMutability": "nonpayable",
      "type": "function"
    },
    {
      "inputs": [],
      "payable": false,
      "stateMutability": "nonpayable",
      "type": "constructor"
    },
    {
      "anonymous": false,
      "inputs": [
        {
          "indexed": false,
          "name": "winner",
          "type": "address"
        },
        {
          "indexed": false,
          "name": "randomNumber",
          "type": "uint256"
        }
      ],
      "name": "Finished",
      "type": "event"
    },
    {
      "anonymous": false,
      "inputs": [
        {
          "indexed": false,
          "name": "message",
          "type": "string"
        },
        {
          "indexed": false,
          "name": "randomNumber",
          "type": "uint256"
        },
        {
          "indexed": false,
          "name": "blockHash",
          "type": "bytes32"
        },
        {
          "indexed": false,
          "name": "blockNumber",
          "type": "uint256"
        }
      ],
      "name": "Log",
      "type": "event"
    }
  ],
  "bytecode": "0x6060604052678ac7230489e800006001556000600260006101000a81548173ffffffffffffffffffffffffffffffffffffffff021916908373ffffffffffffffffffffffffffffffffffffffff1602179055506000600360006101000a81548173ffffffffffffffffffffffffffffffffffffffff021916908373ffffffffffffffffffffffffffffffffffffffff160217905550341561009f57600080fd5b600080819055506109fd806100b56000396000f300606060405260043610610099576000357c0100000000000000000000000000000000000000000000000000000000900463ffffffff16806301339c211461009e5780630a0f8168146100b357806311610c251461010857806317fa23c8146101125780634fa7e9691461013b57806381a2824f146101645780638298c5dc1461019457806394a5c2e4146101e9578063ab40258814610212575b600080fd5b34156100a957600080fd5b6100b161024d565b005b34156100be57600080fd5b6100c66106ae565b604051808273ffffffffffffffffffffffffffffffffffffffff1673ffffffffffffffffffffffffffffffffffffffff16815260200191505060405180910390f35b6101106106d4565b005b341561011d57600080fd5b6101256108e1565b6040518082815260200191505060405180910390f35b341561014657600080fd5b61014e6108ed565b6040518082815260200191505060405180910390f35b341561016f57600080fd5b6101776108f3565b604051808381526020018281526020019250505060405180910390f35b341561019f57600080fd5b6101a761098a565b604051808273ffffffffffffffffffffffffffffffffffffffff1673ffffffffffffffffffffffffffffffffffffffff16815260200191505060405180910390f35b34156101f457600080fd5b6101fc6109b0565b6040518082815260200191505060405180910390f35b341561021d57600080fd5b6102376004808035600019169060200190919050506109b6565b6040518082815260200191505060405180910390f35b6000806000806000806001546000541015151561026957600080fd5b60015460014303406001900481151561027e57fe5b0695507f77022019609f0ea34d47d716dab55960a6c4c6ab065769aa898ba01bdf37a2d88660014303406001430360405180806020018581526020018460001916600019168152602001838152602001828103825260068152602001807f52616e646f6d000000000000000000000000000000000000000000000000000081525060200194505050505060405180910390a16000945073__IterableMapping_______________________63a21ab71660046000604051602001526040518263ffffffff167c01000000000000000000000000000000000000000000000000000000000281526004018082815260200191505060206040518083038186803b151561038857600080fd5b6102c65a03f4151561039957600080fd5b5050506040518051905093505b73__IterableMapping_______________________63c8fccc696004866000604051602001526040518363ffffffff167c0100000000000000000000000000000000000000000000000000000000028152600401808381526020018281526020019250505060206040518083038186803b151561042257600080fd5b6102c65a03f4151561043357600080fd5b50505060405180519050156105b85773__IterableMapping_______________________6375a3e8e86004866000604051606001526040518363ffffffff167c0100000000000000000000000000000000000000000000000000000000028152600401808381526020018281526020019250505060606040518083038186803b15156104be57600080fd5b6102c65a03f415156104cf57600080fd5b5050506040518051906020018051906020018051905092509250925060008573ffffffffffffffffffffffffffffffffffffffff161480156105115750808611155b1561051a578294505b73__IterableMapping_______________________6388d044376004866000604051602001526040518363ffffffff167c0100000000000000000000000000000000000000000000000000000000028152600401808381526020018281526020019250505060206040518083038186803b151561059657600080fd5b6102c65a03f415156105a757600080fd5b5050506040518051905093506103a6565b8473ffffffffffffffffffffffffffffffffffffffff166108fc6001549081150290604051600060405180830381858888f1935050505015156105fa57600080fd5b84600360006101000a81548173ffffffffffffffffffffffffffffffffffffffff021916908373ffffffffffffffffffffffffffffffffffffffff1602179055507f2a5c3ee768d1c9d9e961d2a5461ad9e60b0182d849dfa1219c72416682c1b4fe8587604051808373ffffffffffffffffffffffffffffffffffffffff1673ffffffffffffffffffffffffffffffffffffffff1681526020018281526020019250505060405180910390a1505050505050565b600260009054906101000a900473ffffffffffffffffffffffffffffffffffffffff1681565b6000806000341115156106e657600080fd5b34915033905060015482600054011015156107f75781600080828254019250508190555073__IterableMapping_______________________635803341760048385600054016001540386036001546000604051602001526040518563ffffffff167c0100000000000000000000000000000000000000000000000000000000028152600401808581526020018473ffffffffffffffffffffffffffffffffffffffff1673ffffffffffffffffffffffffffffffffffffffff16815260200183815260200182815260200194505050505060206040518083038186803b15156107ce57600080fd5b6102c65a03f415156107df57600080fd5b50505060405180519050506107f261024d565b6108dd565b81600080828254019250508190555073__IterableMapping_______________________6358033417600483856000546000604051602001526040518563ffffffff167c0100000000000000000000000000000000000000000000000000000000028152600401808581526020018473ffffffffffffffffffffffffffffffffffffffff1673ffffffffffffffffffffffffffffffffffffffff16815260200183815260200182815260200194505050505060206040518083038186803b15156108c057600080fd5b6102c65a03f415156108d157600080fd5b50505060405180519050505b5050565b60048060020154905081565b60005481565b600080600460000160003373ffffffffffffffffffffffffffffffffffffffff1673ffffffffffffffffffffffffffffffffffffffff16815260200190815260200160002060010154600460000160003373ffffffffffffffffffffffffffffffffffffffff1673ffffffffffffffffffffffffffffffffffffffff16815260200190815260200160002060020154915091509091565b600360009054906101000a900473ffffffffffffffffffffffffffffffffffffffff1681565b60015481565b600060015482600190048115156109c957fe5b0690509190505600a165627a7a723058208db11367209bd250e8cbfd91d97810b90982890b40a909b64dc855e205ef884b0029",
  "source": "pragma solidity ^0.4.2;\r\nimport \"./IterableMapping.sol\";\r\ncontract Roulette {\r\n\r\n\r\n\r\n    uint public countBets;\r\n    uint public maxValue = 10 ether;\r\n    // Just to verify that contracts are created only by CEO. Useless ?\r\n    address public ceoAddress = 0x0;\r\n    address public last_winner = 0x0;\r\n    \r\n\r\n    // Store the address for each bet. (adress => (uint, uint)).\r\n    // In the first uint is the bet of the address. \r\n    // In the second one is the sum = bet + previous(sum)\r\n    IterableMapping.itmap public ownerToBet;\r\n\r\n\r\n    event Finished(address winner, uint randomNumber );\r\n\r\n    //Used to debug\r\n    event Log(string message, uint randomNumber, bytes32 blockHash, uint blockNumber);\r\n    \r\n\r\n\r\n    // Modifier\r\n    modifier onlyCEO() {\r\n        require(msg.sender == ceoAddress);\r\n        _;\r\n    }\r\n    modifier launchable(){\r\n        require(countBets >= maxValue);\r\n        _;\r\n    }\r\n    \r\n    modifier transactionMustContainEther() {\r\n        require(msg.value > 0);\r\n        _;\r\n    }\r\n    // Useless ?\r\n    function getUserBet() public returns(uint value, uint sumBet){\r\n        return (ownerToBet.data[msg.sender].value,   ownerToBet.data[msg.sender].betSum);\r\n    }\r\n\r\n    function Roulette() public{\r\n        countBets = 0;\r\n        \r\n    }\r\n\r\n    function bet()  payable  public transactionMustContainEther(){\r\n        uint bet_val = msg.value;\r\n        address bet_sender = msg.sender;\r\n        // If the countbets is equal or bigger than the stop value, we launch the Roulette.\r\n        // If the value is too high, we still launch the Roulette but we consider that he \r\n        // gave just the difference. \r\n        if (countBets + bet_val >= maxValue ){\r\n            // Add the bet\r\n            countBets += bet_val;\r\n\r\n            // il faudra rajouter le cas où il avait déjà parier.\r\n\r\n            IterableMapping.insert(ownerToBet, bet_sender, bet_val - (maxValue-(countBets + bet_val)), maxValue);\r\n            \r\n            // Launch the Roulette\r\n            launch();\r\n        }else{\r\n              // il faudra rajouter le cas où il avait déjà parier.\r\n            countBets+= bet_val;\r\n            IterableMapping.insert(ownerToBet, bet_sender, bet_val, countBets);\r\n            \r\n        }\r\n    }\r\n    function launch() public launchable() {\r\n        // Pick a number semi random. ( * 10 and /10 to have a decimal)\r\n        // Fkcing shit : miners can cheat, and players too :( FML )\r\n        uint randomNumber = (uint256(block.blockhash(block.number - 1))) % (maxValue ) ;\r\n        Log(\"Random\", randomNumber, block.blockhash(block.number - 1), block.number - 1);\r\n        address winner = 0x0;\r\n        for (var i = IterableMapping.iterate_start(ownerToBet); IterableMapping.iterate_valid(ownerToBet, i); i = IterableMapping.iterate_next(ownerToBet, i))\r\n        {\r\n            \r\n            var (key, value, betSum) = IterableMapping.iterate_get(ownerToBet, i);\r\n            \r\n            if (winner == 0x0 && randomNumber <= betSum ){\r\n                \r\n                winner = key;\r\n            }\r\n        }\r\n        require(winner.send(maxValue));\r\n        \r\n        last_winner =winner;\r\n        Finished(winner,randomNumber );\r\n    }\r\n\r\n\r\n\r\n    function testHack(bytes32 hashcode) public returns(uint256) {\r\n        return uint256(hashcode)%maxValue;\r\n    }\r\n\r\n}",
  "sourcePath": "/mnt/c/Users/valentin/workspace/camembertGame/contracts/Roulette.sol",
  "compiler": {
    "name": "solc",
    "version": "0.4.18+commit.9cf6e910.Emscripten.clang"
  },
  "schemaVersion": "1.0.1",
  "updatedAt": "2018-02-07T16:03:38.769Z"
}