{
  "contractName": "CompanyContract",
  "abi": [
    {
      "constant": true,
      "inputs": [],
      "name": "contractCreator",
      "outputs": [
        {
          "name": "",
          "type": "address"
        }
      ],
      "payable": false,
      "stateMutability": "view",
      "type": "function"
    },
    {
      "constant": true,
      "inputs": [],
      "name": "hashCode",
      "outputs": [
        {
          "name": "",
          "type": "bytes32"
        }
      ],
      "payable": false,
      "stateMutability": "view",
      "type": "function"
    },
    {
      "constant": true,
      "inputs": [],
      "name": "bounty",
      "outputs": [
        {
          "name": "",
          "type": "uint256"
        }
      ],
      "payable": false,
      "stateMutability": "view",
      "type": "function"
    },
    {
      "inputs": [
        {
          "name": "pass",
          "type": "string"
        }
      ],
      "payable": true,
      "stateMutability": "payable",
      "type": "constructor"
    },
    {
      "constant": false,
      "inputs": [
        {
          "name": "pass",
          "type": "string"
        }
      ],
      "name": "passAttempt",
      "outputs": [],
      "payable": false,
      "stateMutability": "nonpayable",
      "type": "function"
    }
  ],
  "bytecode": "0x606060405260405161036e38038061036e8339810160405280805182019190505034600181905550336000806101000a81548173ffffffffffffffffffffffffffffffffffffffff021916908373ffffffffffffffffffffffffffffffffffffffff160217905550806040518082805190602001908083835b60208310151561009d5780518252602082019150602081019050602083039250610078565b6001836020036101000a0380198251168184511680821785525050505050509050019150506040518091039020600281600019169055505061028a806100e46000396000f300606060405260043610610062576000357c0100000000000000000000000000000000000000000000000000000000900463ffffffff1680631e2f73b114610067578063466a746e146100bc578063943dfef1146100ed578063a8a2060614610116575b600080fd5b341561007257600080fd5b61007a610173565b604051808273ffffffffffffffffffffffffffffffffffffffff1673ffffffffffffffffffffffffffffffffffffffff16815260200191505060405180910390f35b34156100c757600080fd5b6100cf610198565b60405180826000191660001916815260200191505060405180910390f35b34156100f857600080fd5b61010061019e565b6040518082815260200191505060405180910390f35b341561012157600080fd5b610171600480803590602001908201803590602001908080601f016020809104026020016040519081016040528093929190818152602001838380828437820191505050505050919050506101a4565b005b6000809054906101000a900473ffffffffffffffffffffffffffffffffffffffff1681565b60025481565b60015481565b60025460001916816040518082805190602001908083835b6020831015156101e157805182526020820191506020810190506020830392506101bc565b6001836020036101000a038019825116818451168082178552505050505050905001915050604051809103902060001916141561025b573373ffffffffffffffffffffffffffffffffffffffff166108fc6001549081150290604051600060405180830381858888f19350505050151561025a57600080fd5b5b505600a165627a7a72305820266aed3412266075c5346b8656c9de44a0d8b1bb4afa278f310ceadb70dd96b40029",
  "source": "pragma solidity ^0.4.17;\r\n\r\ncontract CompanyContract{\r\n    address public contractCreator;\r\n    uint public bounty;\r\n    bytes32 public hashCode;\r\n\r\n    function CompanyContract(string pass) payable public {\r\n        bounty = msg.value;\r\n        contractCreator = msg.sender;\r\n        hashCode = keccak256(pass);\r\n    }\r\n\r\n    function passAttempt(string pass) public {\r\n        if(keccak256(pass) == hashCode){\r\n            // The pass has been found.\r\n            // The sender gets the bounty\r\n            require(msg.sender.send(bounty));\r\n        }\r\n    }\r\n\r\n}",
  "sourcePath": "C:\\wamp64\\www\\whiteHatProject\\contracts\\CompanyContract.sol",
  "compiler": {
    "name": "solc",
    "version": "0.4.19+commit.c4cbbb05.Emscripten.clang"
  },
  "schemaVersion": "2.0.0",
  "updatedAt": "2018-03-18T16:19:22.619Z"
}