{
  "contractName": "CompanyContract",
  "abi": [
    {
      "constant": true,
      "inputs": [],
      "name": "contractCreator",
      "outputs": [
        {
          "name": "",
          "type": "address"
        }
      ],
      "payable": false,
      "stateMutability": "view",
      "type": "function"
    },
    {
      "constant": true,
      "inputs": [],
      "name": "password",
      "outputs": [
        {
          "name": "",
          "type": "string"
        }
      ],
      "payable": false,
      "stateMutability": "view",
      "type": "function"
    },
    {
      "constant": true,
      "inputs": [],
      "name": "hashCode",
      "outputs": [
        {
          "name": "",
          "type": "bytes32"
        }
      ],
      "payable": false,
      "stateMutability": "view",
      "type": "function"
    },
    {
      "constant": true,
      "inputs": [],
      "name": "bounty",
      "outputs": [
        {
          "name": "",
          "type": "uint256"
        }
      ],
      "payable": false,
      "stateMutability": "view",
      "type": "function"
    },
    {
      "inputs": [
        {
          "name": "pass",
          "type": "string"
        }
      ],
      "payable": true,
      "stateMutability": "payable",
      "type": "constructor"
    },
    {
      "constant": false,
      "inputs": [
        {
          "name": "pass",
          "type": "string"
        }
      ],
      "name": "passAttempt",
      "outputs": [],
      "payable": false,
      "stateMutability": "nonpayable",
      "type": "function"
    }
  ],
  "bytecode": "0x60606040526040516105393803806105398339810160405280805182019190505034600181905550336000806101000a81548173ffffffffffffffffffffffffffffffffffffffff021916908373ffffffffffffffffffffffffffffffffffffffff16021790555060405180807f61667a6500000000000000000000000000000000000000000000000000000000815250600401905060405180910390206002816000191690555080600390805190602001906100bd9291906100c4565b5050610169565b828054600181600116156101000203166002900490600052602060002090601f016020900481019282601f1061010557805160ff1916838001178555610133565b82800160010185558215610133579182015b82811115610132578251825591602001919060010190610117565b5b5090506101409190610144565b5090565b61016691905b8082111561016257600081600090555060010161014a565b5090565b90565b6103c1806101786000396000f30060606040526004361061006d576000357c0100000000000000000000000000000000000000000000000000000000900463ffffffff1680631e2f73b114610072578063224b610b146100c7578063466a746e14610155578063943dfef114610186578063a8a20606146101af575b600080fd5b341561007d57600080fd5b61008561020c565b604051808273ffffffffffffffffffffffffffffffffffffffff1673ffffffffffffffffffffffffffffffffffffffff16815260200191505060405180910390f35b34156100d257600080fd5b6100da610231565b6040518080602001828103825283818151815260200191508051906020019080838360005b8381101561011a5780820151818401526020810190506100ff565b50505050905090810190601f1680156101475780820380516001836020036101000a031916815260200191505b509250505060405180910390f35b341561016057600080fd5b6101686102cf565b60405180826000191660001916815260200191505060405180910390f35b341561019157600080fd5b6101996102d5565b6040518082815260200191505060405180910390f35b34156101ba57600080fd5b61020a600480803590602001908201803590602001908080601f016020809104026020016040519081016040528093929190818152602001838380828437820191505050505050919050506102db565b005b6000809054906101000a900473ffffffffffffffffffffffffffffffffffffffff1681565b60038054600181600116156101000203166002900480601f0160208091040260200160405190810160405280929190818152602001828054600181600116156101000203166002900480156102c75780601f1061029c576101008083540402835291602001916102c7565b820191906000526020600020905b8154815290600101906020018083116102aa57829003601f168201915b505050505081565b60025481565b60015481565b60025460001916816040518082805190602001908083835b60208310151561031857805182526020820191506020810190506020830392506102f3565b6001836020036101000a0380198251168184511680821785525050505050509050019150506040518091039020600019161415610392573373ffffffffffffffffffffffffffffffffffffffff166108fc6001549081150290604051600060405180830381858888f19350505050151561039157600080fd5b5b505600a165627a7a7230582040422610e01aa5e2fe18487cfef23bef97f9103b426b89cd955d4121da17b56a0029",
  "source": "pragma solidity ^0.4.17;\r\n\r\ncontract CompanyContract{\r\n    address public contractCreator;\r\n    uint public bounty;\r\n    bytes32 public hashCode;\r\n    string public password;\r\n\r\n    function CompanyContract(string pass) payable public {\r\n        bounty = msg.value;\r\n        contractCreator = msg.sender;\r\n        hashCode = keccak256(\"afze\");\r\n        password = pass;\r\n    }\r\n\r\n    function passAttempt(string pass) public {\r\n        if(keccak256(pass) == hashCode){\r\n            // The pass has been found.\r\n            // The sender gets the bounty\r\n            require(msg.sender.send(bounty));\r\n        }\r\n    }\r\n\r\n}",
  "sourcePath": "c:\\wamp64\\www\\whiteHatProject\\contracts\\CompanyContract.sol",
  "compiler": {
    "name": "solc",
    "version": "0.4.19+commit.c4cbbb05.Emscripten.clang"
  },
  "schemaVersion": "2.0.0",
  "updatedAt": "2018-03-17T18:55:45.025Z"
}