{
  "contractName": "CompanyContract",
  "abi": [
    {
      "constant": true,
      "inputs": [],
      "name": "contractCreator",
      "outputs": [
        {
          "name": "",
          "type": "address"
        }
      ],
      "payable": false,
      "stateMutability": "view",
      "type": "function"
    },
    {
      "constant": true,
      "inputs": [],
      "name": "bounty",
      "outputs": [
        {
          "name": "",
          "type": "uint256"
        }
      ],
      "payable": false,
      "stateMutability": "view",
      "type": "function"
    },
    {
      "inputs": [
        {
          "name": "password",
          "type": "string"
        }
      ],
      "payable": true,
      "stateMutability": "payable",
      "type": "constructor"
    },
    {
      "constant": false,
      "inputs": [
        {
          "name": "password",
          "type": "string"
        }
      ],
      "name": "passAttempt",
      "outputs": [],
      "payable": false,
      "stateMutability": "nonpayable",
      "type": "function"
    }
  ],
  "bytecode": "0x606060405260405161032c38038061032c8339810160405280805182019190505034600181905550336000806101000a81548173ffffffffffffffffffffffffffffffffffffffff021916908373ffffffffffffffffffffffffffffffffffffffff160217905550806040518082805190602001908083835b60208310151561009d5780518252602082019150602081019050602083039250610078565b6001836020036101000a03801982511681845116808217855250505050505090500191505060405180910390206002816000191690555050610248806100e46000396000f300606060405260043610610057576000357c0100000000000000000000000000000000000000000000000000000000900463ffffffff1680631e2f73b11461005c578063943dfef1146100b1578063a8a20606146100da575b600080fd5b341561006757600080fd5b61006f610137565b604051808273ffffffffffffffffffffffffffffffffffffffff1673ffffffffffffffffffffffffffffffffffffffff16815260200191505060405180910390f35b34156100bc57600080fd5b6100c461015c565b6040518082815260200191505060405180910390f35b34156100e557600080fd5b610135600480803590602001908201803590602001908080601f01602080910402602001604051908101604052809392919081815260200183838082843782019150505050505091905050610162565b005b6000809054906101000a900473ffffffffffffffffffffffffffffffffffffffff1681565b60015481565b60025460001916816040518082805190602001908083835b60208310151561019f578051825260208201915060208101905060208303925061017a565b6001836020036101000a0380198251168184511680821785525050505050509050019150506040518091039020600019161415610219573373ffffffffffffffffffffffffffffffffffffffff166108fc6001549081150290604051600060405180830381858888f19350505050151561021857600080fd5b5b505600a165627a7a72305820f91ec024c39aeec64e2ef181c8075bf341d6c8ed4de242f0bdfb330adef48ed90029",
  "source": "pragma solidity ^0.4.17;\r\n\r\ncontract CompanyContract{\r\n    address public contractCreator;\r\n    uint public bounty;\r\n    bytes32 hashCode;\r\n\r\n    function CompanyContract(string password) payable public {\r\n        bounty = msg.value;\r\n        contractCreator = msg.sender;\r\n        hashCode = keccak256(password);\r\n\r\n    }\r\n\r\n    function passAttempt(string password) public {\r\n        if(keccak256(password) == hashCode){\r\n            // The pass has been found.\r\n            // The sender gets the bounty\r\n            require(msg.sender.send(bounty));\r\n        }\r\n    }\r\n\r\n}",
  "sourcePath": "d:\\Developpement\\whiteHatProject\\contracts\\CompanyContract.sol",
  "compiler": {
    "name": "solc",
    "version": "0.4.19+commit.c4cbbb05.Emscripten.clang"
  },
  "schemaVersion": "2.0.0",
  "updatedAt": "2018-03-05T16:40:44.990Z"
}